:100000000C942A000C944E060C943C000C943C007A
:100010000C943C000C943C000C943C000C94AA0200
:100020000C943C000C94DD020C943C000C943C00BD
:100030000C943C000C943C000C943C000C943C0050
:100040000C943C000C943C000C943C000C943C0040
:100050000C943C0011241FBECFE5D8E0DEBFCDBF1D
:1000600010E0A0E6B0E001C01D92A736B107E1F7AD
:100070000E94E8060C94F3060C940000DF93CF93E3
:10008000CDB7DEB781E061E00E94BC0681E061E0AF
:1000900041E00E94D306CF91DF910895DF93CF9383
:1000A000CDB7DEB70E943E00CF91DF910895DF9378
:1000B000CF93CDB7DEB783E00E9481068EE490E057
:1000C0000E94A906CF91DF910895DF93CF93CDB71A
:1000D000DEB70E943E00CF91DF910895DF93CF936A
:1000E00000D0CDB7DEB785E690E00E949802E981A6
:1000F000FA8111821082E981FA8180E197E293838B
:100100008283E981FA8181E08583E981FA8184E053
:10011000848389819A810E9425020F900F90CF914C
:10012000DF910895DF93CF93CDB7DEB70E949B0098
:100130000E94F600FDCFDF93CF9300D000D000D017
:10014000CDB7DEB783E00E9481068CED90E00E947F
:10015000A90680E060E00E94BC0680E061E00E94A9
:10016000BC0680E062E00E94BC0681E060E00E9484
:10017000BC0681E060E00E94BC0681E060E00E9475
:10018000BC0681E08E831A82198282E49FE09C8300
:100190008B8385E08D8386EE90E00E949802CE01ED
:1001A00001960E94250226960FB6F894DEBF0FBE78
:1001B000CDBFCF91DF910895DF93CF93CDB7DEB759
:1001C00081E080936200CF91DF910895DF93CF9318
:1001D000CDB7DEB780916000909161000196909359
:1001E000610080936000CF91DF910895DF93CF93FA
:1001F000CDB7DEB70E9406010E9445010E94F201C0
:100200000E94960181E0CF91DF910895DF93CF9313
:100210000F92CDB7DEB780E060E041E00E94D306E8
:1002200080E061E040E00E94D30680E062E040E0D0
:100230000E94D30681E060E040E00E94D30681E0A6
:1002400061E040E00E94D30681E062E041E00E946C
:10025000D30607C080916200813019F481E0898360
:100260000FC080916000909161008A30910590F3F9
:1002700010926100109260001092620081E0898308
:1002800089810F90CF91DF910895DF93CF93CDB700
:10029000DEB780E060E040E00E94D30680E061E0ED
:1002A00041E00E94D30680E062E040E00E94D30675
:1002B00081E060E040E00E94D30681E061E041E03F
:1002C0000E94D30681E062E041E00E94D3061DC097
:1002D000809160009091610081709070882359F046
:1002E00080E061E041E00E94D30681E061E041E00E
:1002F0000E94D3060AC080E061E040E00E94D3067D
:1003000081E061E040E00E94D3068091600090911E
:1003100061008A309105E0F2109262001092610053
:100320001092600081E0CF91DF910895DF93CF9329
:100330000F92CDB7DEB780E060E040E00E94D306C8
:1003400080E061E041E00E94D30680E062E040E0AE
:100350000E94D30681E060E040E00E94D30681E085
:1003600061E041E00E94D30681E062E041E00E944A
:10037000D30624C0809160009091610081709070DC
:10038000882359F080E061E041E00E94D30681E0DB
:1003900061E041E00E94D3060AC080E061E040E0F5
:1003A0000E94D30681E061E040E00E94D306809184
:1003B0006200813019F481E089830FC08091600070
:1003C000909161008A309105A8F21092620010921B
:1003D00061001092600081E0898389810F90CF9144
:1003E000DF910895DF93CF93CDB7DEB780E060E073
:1003F00040E00E94D30680E061E040E00E94D30626
:1004000080E062E041E00E94D30681E060E041E0EC
:100410000E94D30681E061E040E00E94D30681E0C3
:1004200062E040E00E94D3068091600090916100FC
:100430008A309105C8F31092620010926100109208
:10044000600081E0CF91DF910895DF93CF9300D0DA
:10045000CDB7DEB79A838983AFE5B0E0EFE5F0E092
:10046000808180688C93E981FA818581813049F4AB
:10047000A9E5B0E0E9E5F0E080818F7C80618C93B4
:1004800008C0A9E5B0E0E9E5F0E080818B7C8460FC
:100490008C93ACE4B0E0E981FA818081918111967E
:1004A0009C938E93EFE4F0E08CE08083AEE4B0E0C8
:1004B000EEE4F0E08081282F277FE981FA818581B1
:1004C000882F90E0880F991F880F991F880F991F18
:1004D000822B8C93E981FA818581813051F4EAE4A1
:1004E000F0E0A981BA8112968D919C911397918326
:1004F0008083AEE4B0E0EEE4F0E08081982F987F56
:10050000E981FA818481892B8C930F900F90CF9190
:10051000DF910895DF93CF93CDB7DEB7AEE4B0E0BF
:10052000EEE4F0E08081887F8C93CF91DF91089595
:10053000DF93CF9300D0CDB7DEB79A8389838981CB
:100540009A8190936400809363000F900F90CF91F5
:10055000DF9108951F920F920FB60F9211242F93DF
:100560003F934F935F936F937F938F939F93AF933B
:10057000BF93EF93FF93DF93CF93CDB7DEB7809117
:10058000630090916400009729F0E0916300F0917E
:1005900064000995CF91DF91FF91EF91BF91AF91E9
:1005A0009F918F917F916F915F914F913F912F918B
:1005B0000F900FBE0F901F9018951F920F920FB6BD
:1005C0000F9211242F933F934F935F936F937F93D9
:1005D0008F939F93AF93BF93EF93FF93DF93CF934B
:1005E000CDB7DEB78091630090916400009729F049
:1005F000E0916300F09164000995CF91DF91FF9144
:10060000EF91BF91AF919F918F917F916F915F918A
:100610004F913F912F910F900FBE0F901F90189503
:10062000DF93CF9300D000D00F92CDB7DEB7898390
:100630006A834B838A81883008F0D5C089818430F1
:1006400008F0D1C08981282F30E03D832C838C8134
:100650009D818130910509F443C02C813D81223078
:1006600031052CF48C819D81009771F0BCC02C81E8
:100670003D812230310509F45FC08C819D8183303A
:10068000910509F485C0AFC08B818130A1F4AAE344
:10069000B0E0EAE3F0E08081482F8A81282F30E043
:1006A00081E090E0022E02C0880F991F0A94E2F7C1
:1006B000842B8C9398C0AAE3B0E0EAE3F0E0808159
:1006C000482F8A81282F30E081E090E0022E02C07E
:1006D000880F991F0A94E2F7809584238C9383C036
:1006E0008B818130A1F4A7E3B0E0E7E3F0E0808103
:1006F000482F8A81282F30E081E090E0022E02C04E
:10070000880F991F0A94E2F7842B8C936CC0A7E39F
:10071000B0E0E7E3F0E08081482F8A81282F30E0C5
:1007200081E090E0022E02C0880F991F0A94E2F740
:10073000809584238C9357C08B818130A1F4A4E3EE
:10074000B0E0E4E3F0E08081482F8A81282F30E098
:1007500081E090E0022E02C0880F991F0A94E2F710
:10076000842B8C9340C0A4E3B0E0E4E3F0E080810C
:10077000482F8A81282F30E081E090E0022E02C0CD
:10078000880F991F0A94E2F7809584238C932BC0DD
:100790008B818130A1F4A1E3B0E0E1E3F0E080815E
:1007A000482F8A81282F30E081E090E0022E02C09D
:1007B000880F991F0A94E2F7842B8C9314C0A1E34D
:1007C000B0E0E1E3F0E08081482F8A81282F30E01B
:1007D00081E090E0022E02C0880F991F0A94E2F790
:1007E000809584238C930F900F900F900F900F9013
:1007F000CF91DF910895DF93CF9300D000D00F9277
:10080000CDB7DEB789836A834B838A81883008F04D
:10081000D5C08981843008F0D1C08981282F30E08B
:100820003D832C838C819D818130910509F443C0E7
:100830002C813D81223031052CF48C819D810097E3
:1008400071F0BCC02C813D812230310509F45FC0BC
:100850008C819D818330910509F485C0AFC08B8167
:100860008130A1F4ABE3B0E0EBE3F0E08081482F0E
:100870008A81282F30E081E090E0022E02C0880FAC
:10088000991F0A94E2F7842B8C9398C0ABE3B0E0F5
:10089000EBE3F0E08081482F8A81282F30E081E06F
:1008A00090E0022E02C0880F991F0A94E2F780950B
:1008B00084238C9383C08B818130A1F4A8E3B0E0C2
:1008C000E8E3F0E08081482F8A81282F30E081E042
:1008D00090E0022E02C0880F991F0A94E2F7842B41
:1008E0008C936CC0A8E3B0E0E8E3F0E08081482F8F
:1008F0008A81282F30E081E090E0022E02C0880F2C
:10090000991F0A94E2F7809584238C9357C08B81BA
:100910008130A1F4A5E3B0E0E5E3F0E08081482F69
:100920008A81282F30E081E090E0022E02C0880FFB
:10093000991F0A94E2F7842B8C9340C0A5E3B0E0A2
:10094000E5E3F0E08081482F8A81282F30E081E0C4
:1009500090E0022E02C0880F991F0A94E2F780955A
:1009600084238C932BC08B818130A1F4A2E3B0E06F
:10097000E2E3F0E08081482F8A81282F30E081E097
:1009800090E0022E02C0880F991F0A94E2F7842B90
:100990008C9314C0A2E3B0E0E2E3F0E08081482F42
:1009A0008A81282F30E081E090E0022E02C0880F7B
:1009B000991F0A94E2F7809584238C930F900F90EF
:1009C0000F900F900F90CF91DF910895DF93CF9309
:1009D00000D000D00F92CDB7DEB78A836B83198227
:1009E0008B81883008F084C08A81843008F080C010
:1009F0008A81282F30E03D832C834C815D814130FA
:100A0000510579F18C819D818230910534F42C81DE
:100A10003D812115310569F06BC04C815D8142300B
:100A20005105B9F18C819D818330910509F449C04C
:100A30005FC0E9E3F0E08081282F30E08B81882FD0
:100A400090E0A90102C0559547958A95E2F7CA0141
:100A500081709070882319F081E0898349C01982E0
:100A600047C0E6E3F0E08081282F30E08B81882FBB
:100A700090E0A90102C0559547958A95E2F7CA0111
:100A800081709070882319F081E0898331C01982C8
:100A90002FC0E3E3F0E08081282F30E08B81882FA6
:100AA00090E0A90102C0559547958A95E2F7CA01E1
:100AB00081709070882319F081E0898319C01982B0
:100AC00017C0E0E3F0E08081282F30E08B81882F91
:100AD00090E0A90102C0559547958A95E2F7CA01B1
:100AE00081709070882319F081E0898301C0198298
:100AF00089810F900F900F900F900F90CF91DF9101
:100B00000895DF93CF9300D000D0CDB7DEB78983AF
:100B10006A838981843090F58981282F30E03C8375
:100B20002B838B819C8181309105D1F02B813C817D
:100B3000223031052CF48B819C81009761F01EC01E
:100B40002B813C812230310581F08B819C81833067
:100B5000910581F013C0EAE3F0E08A8180830EC042
:100B6000E7E3F0E08A81808309C0E4E3F0E08A8172
:100B7000808304C0E1E3F0E08A8180830F900F90CE
:100B80000F900F90CF91DF910895DF93CF9300D016
:100B900000D0CDB7DEB789836A838981843090F530
:100BA0008981282F30E03C832B838B819C8181308D
:100BB0009105D1F02B813C81223031052CF48B81C1
:100BC0009C81009761F01EC02B813C812230310551
:100BD00081F08B819C818330910581F013C0EBE320
:100BE000F0E08A8180830EC0E8E3F0E08A818083B0
:100BF00009C0E5E3F0E08A81808304C0E2E3F0E02D
:100C00008A8180830F900F900F900F90CF91DF918A
:100C10000895DF93CF9300D000D0CDB7DEB78A839D
:100C200019828A81843090F58A81282F30E03C83B4
:100C30002B838B819C8181309105D1F02B813C816C
:100C4000223031052CF48B819C81009761F01EC00D
:100C50002B813C812230310581F08B819C81833056
:100C6000910581F013C0E9E3F0E0808189830EC033
:100C7000E6E3F0E08081898309C0E3E3F0E080816E
:100C8000898304C0E0E3F0E08081898389810F904B
:100C90000F900F900F90CF91DF9108951F920F92B8
:100CA0000FB60F9211242F933F934F935F936F933F
:100CB0007F938F939F93AF93BF93EF93FF93DF93B4
:100CC000CF93CDB7DEB78091650090916600009715
:100CD00029F0E0916500F09166000995CF91DF91D0
:100CE000FF91EF91BF91AF919F918F917F916F9104
:100CF0005F914F913F912F910F900FBE0F901F90DA
:100D00001895DF93CF930F92CDB7DEB78983AFE508
:100D1000B0E0EFE5F0E0808180688C9383E062E0F2
:100D200040E00E941003A5E5B0E0E5E5F0E0808139
:100D3000982F9C7F8981892B8C93ABE5B0E0EBE504
:100D4000F0E0808180648C9381E00F90CF91DF91FF
:100D50000895DF93CF9300D0CDB7DEB79A83898310
:100D600089819A81909366008093650081E00F905D
:100D70000F90CF91DF910895DF93CF9300D0CDB73F
:100D8000DEB789836A8389816A8141E00E9410030A
:100D900089816A8140E00E94FB0381E00F900F90FF
:100DA000CF91DF910895DF93CF9300D00F92CDB70D
:100DB000DEB789836A834B8389816A814B810E9474
:100DC000FB0381E00F900F900F90CF91DF9108957A
:100DD000DF93CF93CDB7DEB70E94920080E090E022
:0A0DE000CF91DF910895F894FFCF42
:00000001FF
