:100000000C942A000C9429010C943C000C943C00A4
:100010000C943C000C943C000C943C000C94C300E9
:100020000C943C000C94F6000C943C000C943C00A6
:100030000C943C000C943C000C943C000C943C0050
:100040000C943C000C943C000C943C000C943C0040
:100050000C943C0011241FBECFE5D8E0DEBFCDBF1D
:1000600010E0A0E6B0E001C01D92A736B107E1F7AD
:100070000E9477060C9482060C940000DF93CF93C5
:1000800000D0CDB7DEB79A838983AFE5B0E0EFE566
:10009000F0E0808180688C93E981FA8185818130EC
:1000A00049F4A9E5B0E0E9E5F0E080818F7C80616A
:1000B0008C9308C0A9E5B0E0E9E5F0E080818B7C95
:1000C00084608C93ACE4B0E0E981FA818081918115
:1000D00011969C938E93EFE4F0E08CE08083AEE485
:1000E000B0E0EEE4F0E08081282F277FE981FA81FB
:1000F0008581882F90E0880F991F880F991F880F9E
:10010000991F822B8C93E981FA818581813051F48A
:10011000EAE4F0E0A981BA8112968D919C9113973F
:1001200091838083AEE4B0E0EEE4F0E08081982F2C
:10013000987FE981FA818481892B8C930F900F90AD
:10014000CF91DF910895DF93CF93CDB7DEB7AEE4C3
:10015000B0E0EEE4F0E08081887F8C93CF91DF9176
:100160000895DF93CF9300D0CDB7DEB79A8389830C
:1001700089819A8190936100809360000F900F9025
:10018000CF91DF9108951F920F920FB60F92112415
:100190002F933F934F935F936F937F938F939F938F
:1001A000AF93BF93EF93FF93DF93CF93CDB7DEB7BA
:1001B0008091600090916100009729F0E0916000CB
:1001C000F09161000995CF91DF91FF91EF91BF917F
:1001D000AF919F918F917F916F915F914F913F91DF
:1001E0002F910F900FBE0F901F9018951F920F9296
:1001F0000FB60F9211242F933F934F935F936F93FA
:100200007F938F939F93AF93BF93EF93FF93DF936E
:10021000CF93CDB7DEB780916000909161000097D9
:1002200029F0E0916000F09161000995CF91DF9194
:10023000FF91EF91BF91AF919F918F917F916F91BE
:100240005F914F913F912F910F900FBE0F901F9094
:1002500018951F920F920FB60F9211242F933F9370
:100260004F935F936F937F938F939F93AF93BF93BE
:10027000EF93FF93DF93CF93CDB7DEB7809162000A
:1002800090916300009729F0E0916200F091630083
:100290000995CF91DF91FF91EF91BF91AF919F9120
:1002A0008F917F916F915F914F913F912F910F901F
:1002B0000FBE0F901F901895DF93CF930F92CDB77D
:1002C000DEB78983AFE5B0E0EFE5F0E080818068DC
:1002D0008C9383E062E040E00E949501A5E5B0E0E8
:1002E000E5E5F0E08081982F9C7F8981892B8C93B4
:1002F000ABE5B0E0EBE5F0E0808180648C930F909B
:10030000CF91DF910895DF93CF9300D0CDB7DEB7C3
:100310009A83898389819A81909363008093620094
:100320000F900F90CF91DF910895DF93CF9300D07E
:1003300000D00F92CDB7DEB789836A834B838A8161
:10034000883008F0D5C08981843008F0D1C0898117
:10035000282F30E03D832C838C819D818130910555
:1003600009F443C02C813D81223031052CF48C816D
:100370009D81009771F0BCC02C813D8122303105F8
:1003800009F45FC08C819D818330910509F485C09B
:10039000AFC08B818130A1F4AAE3B0E0EAE3F0E0E2
:1003A0008081482F8A81282F30E081E090E0022E62
:1003B00002C0880F991F0A94E2F7842B8C9398C08F
:1003C000AAE3B0E0EAE3F0E08081482F8A81282F99
:1003D00030E081E090E0022E02C0880F991F0A945D
:1003E000E2F7809584238C9383C08B818130A1F4C4
:1003F000A7E3B0E0E7E3F0E08081482F8A81282F6F
:1004000030E081E090E0022E02C0880F991F0A942C
:10041000E2F7842B8C936CC0A7E3B0E0E7E3F0E055
:100420008081482F8A81282F30E081E090E0022EE1
:1004300002C0880F991F0A94E2F7809584238C9359
:1004400057C08B818130A1F4A4E3B0E0E4E3F0E095
:100450008081482F8A81282F30E081E090E0022EB1
:1004600002C0880F991F0A94E2F7842B8C9340C036
:10047000A4E3B0E0E4E3F0E08081482F8A81282FF4
:1004800030E081E090E0022E02C0880F991F0A94AC
:10049000E2F7809584238C932BC08B818130A1F46B
:1004A000A1E3B0E0E1E3F0E08081482F8A81282FCA
:1004B00030E081E090E0022E02C0880F991F0A947C
:1004C000E2F7842B8C9314C0A1E3B0E0E1E3F0E009
:1004D0008081482F8A81282F30E081E090E0022E31
:1004E00002C0880F991F0A94E2F7809584238C93A9
:1004F0000F900F900F900F900F90CF91DF91089574
:10050000DF93CF9300D000D00F92CDB7DEB78983B1
:100510006A834B838A81883008F0D5C08981843012
:1005200008F0D1C08981282F30E03D832C838C8155
:100530009D818130910509F443C02C813D81223099
:1005400031052CF48C819D81009771F0BCC02C8109
:100550003D812230310509F45FC08C819D8183305B
:10056000910509F485C0AFC08B818130A1F4ABE364
:10057000B0E0EBE3F0E08081482F8A81282F30E063
:1005800081E090E0022E02C0880F991F0A94E2F7E2
:10059000842B8C9398C0ABE3B0E0EBE3F0E0808178
:1005A000482F8A81282F30E081E090E0022E02C09F
:1005B000880F991F0A94E2F7809584238C9383C057
:1005C0008B818130A1F4A8E3B0E0E8E3F0E0808122
:1005D000482F8A81282F30E081E090E0022E02C06F
:1005E000880F991F0A94E2F7842B8C936CC0A8E3C0
:1005F000B0E0E8E3F0E08081482F8A81282F30E0E6
:1006000081E090E0022E02C0880F991F0A94E2F761
:10061000809584238C9357C08B818130A1F4A5E30E
:10062000B0E0E5E3F0E08081482F8A81282F30E0B8
:1006300081E090E0022E02C0880F991F0A94E2F731
:10064000842B8C9340C0A5E3B0E0E5E3F0E080812B
:10065000482F8A81282F30E081E090E0022E02C0EE
:10066000880F991F0A94E2F7809584238C932BC0FE
:100670008B818130A1F4A2E3B0E0E2E3F0E080817D
:10068000482F8A81282F30E081E090E0022E02C0BE
:10069000880F991F0A94E2F7842B8C9314C0A2E36D
:1006A000B0E0E2E3F0E08081482F8A81282F30E03B
:1006B00081E090E0022E02C0880F991F0A94E2F7B1
:1006C000809584238C930F900F900F900F900F9034
:1006D000CF91DF910895DF93CF9300D000D00F9298
:1006E000CDB7DEB78A836B8319828B81883008F09F
:1006F00084C08A81843008F080C08A81282F30E04D
:100700003D832C834C815D814130510579F18C8191
:100710009D818230910534F42C813D812115310574
:1007200069F06BC04C815D8142305105B9F18C811B
:100730009D818330910509F449C05FC0E9E3F0E091
:100740008081282F30E08B81882F90E0A90102C0A2
:10075000559547958A95E2F7CA0181709070882374
:1007600019F081E0898349C0198247C0E6E3F0E0CF
:100770008081282F30E08B81882F90E0A90102C072
:10078000559547958A95E2F7CA0181709070882344
:1007900019F081E0898331C019822FC0E3E3F0E0D2
:1007A0008081282F30E08B81882F90E0A90102C042
:1007B000559547958A95E2F7CA0181709070882314
:1007C00019F081E0898319C0198217C0E0E3F0E0D5
:1007D0008081282F30E08B81882F90E0A90102C012
:1007E000559547958A95E2F7CA01817090708823E4
:1007F00019F081E0898301C0198289810F900F90DF
:100800000F900F900F90CF91DF910895DF93CF93CA
:1008100000D000D0CDB7DEB789836A838981843068
:1008200090F58981282F30E03C832B838B819C813C
:1008300081309105D1F02B813C81223031052CF49F
:100840008B819C81009761F01EC02B813C812230FE
:10085000310581F08B819C818330910581F013C03B
:10086000EAE3F0E08A8180830EC0E7E3F0E08A816A
:10087000808309C0E4E3F0E08A81808304C0E1E37F
:10088000F0E08A8180830F900F900F900F90CF91AE
:10089000DF910895DF93CF9300D000D0CDB7DEB7BE
:1008A00089836A838981843090F58981282F30E09B
:1008B0003C832B838B819C8181309105D1F02B81EE
:1008C0003C81223031052CF48B819C81009761F0B2
:1008D0001EC02B813C812230310581F08B819C81AF
:1008E0008330910581F013C0EBE3F0E08A818083CF
:1008F0000EC0E8E3F0E08A81808309C0E5E3F0E020
:100900008A81808304C0E2E3F0E08A8180830F90D3
:100910000F900F900F90CF91DF910895DF93CF93B9
:1009200000D000D0CDB7DEB78A8319828A818430A7
:1009300090F58A81282F30E03C832B838B819C812A
:1009400081309105D1F02B813C81223031052CF48E
:100950008B819C81009761F01EC02B813C812230ED
:10096000310581F08B819C818330910581F013C02A
:10097000E9E3F0E0808189830EC0E6E3F0E0808166
:10098000898309C0E3E3F0E08081898304C0E0E368
:10099000F0E08081898389810F900F900F900F90F4
:1009A000CF91DF910895DF93CF93CDB7DEB70E944B
:1009B000DC040E945B05FDCFDF93CF9300D000D015
:1009C00000D0CDB7DEB783E00E945C0181E495E002
:1009D0000E94830180E060E041E00E94950180E098
:1009E00060E040E00E94800280E061E041E00E941F
:1009F000950180E061E040E00E94800280E062E0DA
:100A000041E00E94950180E062E040E00E948002A7
:100A100081E060E041E00E94950181E060E040E01B
:100A20000E94800281E061E041E00E94950181E046
:100A300061E040E00E94800281E062E041E00E94CB
:100A4000950181E062E040E00E94800281E08E83B7
:100A50001A82198282E49FE09C838B8385E08D83D8
:100A60008BE495E00E94B100CE0101960E943E0009
:100A700026960FB6F894DEBF0FBECDBFCF91DF91A3
:100A80000895DF93CF93CDB7DEB781E08093660002
:100A9000CF91DF910895DF93CF93CDB7DEB78091EB
:100AA00064009091650001969093650080936400C6
:100AB000CF91DF910895DF93CF93CDB7DEB70E943A
:100AC0006A050E94A1050E9445060E94F105CF918A
:100AD000DF910895DF93CF93CDB7DEB780E060E07C
:100AE00041E00E94800280E061E040E00E948002DC
:100AF00080E062E040E00E94800281E060E040E04F
:100B00000E94800281E061E040E00E94800281E07A
:100B100062E041E00E94800204C080916600813062
:100B200069F080916400909165008A309105A8F386
:100B3000109265001092640010926600CF91DF91D0
:100B40000895DF93CF93CDB7DEB780E060E040E05B
:100B50000E94800280E061E041E00E94800280E02B
:100B600062E040E00E94800281E060E040E00E949C
:100B7000800281E061E041E00E94800281E062E069
:100B800041E00E9480021DC0809164009091650048
:100B900081709070882359F080E061E041E00E940C
:100BA000800281E061E041E00E9480020AC080E0B2
:100BB00061E040E00E94800281E061E040E00E944C
:100BC000800280916400909165008A309105E0F286
:100BD000109266001092650010926400CF91DF9130
:100BE0000895DF93CF93CDB7DEB780E060E040E0BB
:100BF0000E94800280E061E041E00E94800280E08B
:100C000062E040E00E94800281E060E041E00E94FA
:100C1000800281E061E041E00E94800281E062E0C8
:100C200040E00E94800221C08091640090916500A4
:100C300081709070882359F080E061E041E00E946B
:100C4000800281E061E041E00E9480020AC080E011
:100C500061E040E00E94800281E061E040E00E94AB
:100C6000800280916600813069F0809164009091EB
:100C700065008A309105C0F21092660010926500FE
:100C800010926400CF91DF910895DF93CF93CDB799
:100C9000DEB780E060E040E00E94800280E061E03A
:100CA00040E00E94800280E062E041E00E94800219
:100CB00081E060E041E00E94800281E061E040E08C
:100CC0000E94800281E062E040E00E948002809108
:100CD0006400909165008A309105C8F31092660017
:100CE0001092650010926400CF91DF910895DF9318
:100CF000CF93CDB7DEB70E94D30480E090E0CF91D0
:080D0000DF910895F894FFCF84
:00000001FF
